S00E000044494F4170702E7372656319
S11300000C942A000C9434000C9434000C943400A6
S11300100C9434000C9434000C9434000C9434008C
S11300200C9434000C9434000C9434000C9434007C
S11300300C9434000C9434000C9434000C9434006C
S11300400C9434000C9434000C9434000C9434005C
S11300500C94340011241FBECFE5D8E0DEBFCDBF21
S11300600E9498010C94C6010C940000813019F18F
S113007030F08230E1F1833009F455C0089544230F
S113008019F0413069F008952BB381E090E002C08B
S1130090880F991F6A95E2F7809582238BBB089598
S11300A02BB381E090E002C0880F991F6A95E2F7B4
S11300B0822B8BBB0895442319F0413069F00895D5
S11300C028B381E090E002C0880F991F6A95E2F797
S11300D08095822388BB089528B381E090E002C014
S11300E0880F991F6A95E2F7822B88BB08954423F1
S11300F019F0413069F0089525B381E090E002C021
S1130100880F991F6A95E2F78095822385BB08952D
S113011025B381E090E002C0880F991F6A95E2F749
S1130120822B85BB0895442319F0413069F008956A
S113013022B381E090E002C0880F991F6A95E2F72C
S11301408095822382BB089522B381E090E002C0AF
S1130150880F991F6A95E2F7822B82BB089581303C
S113016019F130F08230E1F1833009F455C008957B
S1130170442319F0413069F008952AB381E090E0F6
S113018002C0880F991F6A95E2F7809582238ABB83
S113019008952AB381E090E002C0880F991F6A9500
S11301A0E2F7822B8ABB0895442319F0413069F0A9
S11301B0089527B381E090E002C0880F991F6A95E3
S11301C0E2F78095822387BB089527B381E090E00E
S11301D002C0880F991F6A95E2F7822B87BB0895A6
S11301E0442319F0413069F0089524B381E090E08C
S11301F002C0880F991F6A95E2F78095822384BB19
S1130200089524B381E090E002C0880F991F6A9595
S1130210E2F7822B84BB0895442319F0413069F03E
S1130220089521B381E090E002C0880F991F6A9578
S1130230E2F78095822381BB089521B381E090E0A9
S113024002C0880F991F6A95E2F7822B81BB08953B
S1130250813091F028F08230D9F0833029F108956B
S1130260662319F0613021F008958BB31BBA089509
S11302708BB38FEF8BBB0895662319F0613021F0A7
S1130280089588B318BA089588B38FEF88BB08958A
S1130290662319F0613021F0089585B315BA0895E5
S11302A085B38FEF85BB0895662319F0613021F083
S11302B0089582B312BA089582B38FEF82BB089572
S11302C0813091F028F08230D9F0833029F10895FB
S11302D0662319F0613021F008958AB31ABA08959B
S11302E08AB38FEF8ABB0895662319F0613021F039
S11302F0089587B317BA089587B38FEF87BB08951E
S1130300662319F0613021F0089584B314BA089576
S113031084B38FEF84BB0895662319F0613021F014
S1130320089581B311BA089581B38FEF81BB089505
S113033041E064E080E00E94AF0061E082E00E945E
S1130340600141E064E080E00E94360061E082E008
S11303500E9428012FEF89E698E1215080409040C7
S1130360E1F700C0000040E064E080E00E94360055
S113037060E082E00E9428012FEF89E698E1215095
S113038080409040E1F700C00000DBCFF894FFCF3D
S9030000FC
